:020000040001F9
:10C00000183C0020F5C001000FC1010011C1010062
:10C010000000000000000000000000000000000020
:10C0200000000000000000000000000013C101003B
:10C03000000000000000000015C1010017C1010050
:10C0400019C1010019C10100DDC5010019C10100BC
:10C0500019C101000000000009C2010019C101005E
:10C0600019C1010019C1010019C1010019C1010064
:10C0700019C1010019C1010019C1010019C1010054
:10C0800019C1010039C5010019C1010019C1010020
:10C0900061C5010019C1010069C5010019C1010094
:10C0A00019C1010019C101000000000000000000DA
:10C0B0000000000000000000000000000000000080
:10C0C0000348854600F08EF800480047C1FD010096
:10C0D000183C0020401E00BF00BF00BF00BF00BFD3
:10C0E00000BF00BF00BF00BF00BF00BF00BFF1D155
:10C0F000704700000321094802680A4302600848AB
:10C1000002680A4302600748804707480047FEE785
:10C11000FEE7FEE7FEE7FEE7FEE70000240500403D
:10C1200054050040A5C50100C1C0010030B50B4653
:10C13000014600202022012409E00D46D5409D4201
:10C1400005D31D469540491B254695404019154687
:10C15000521E002DF1DC30BD70B5002425460028AC
:10C1600001DA01244042002901DA01254942FFF7A2
:10C17000DDFFAC4200D04042002C00D0494270BDEF
:10C1800003460B439B0703D009E008C9121F08C0F0
:10C19000042AFAD203E00B780370401C491C521E9B
:10C1A000F9D27047D2B201E00270401C491EFBD2A6
:10C1B00070470022F6E710B513460A4604461946B2
:10C1C000FFF7F0FF204610BD30B5044600200346BF
:10C1D00000E05B1C934203D2E05CCD5C401BF8D0D6
:10C1E00030BD0000064C0125064E05E0E36807CC93
:10C1F0002B430C3C98471034B442F7D3FFF764FF4D
:10C200004020020060200200F0B587B00026002028
:10C210000690FF20013005900125002416E00598C6
:10C2200004F04EF800280BD000BF56484068284064
:10C23000002805D0059804F03BF830462843064610
:10C240006D000598001D80B20590641C042CE6D397
:10C25000FF207D3004F034F800280AD0FF207D3024
:10C2600004F026F80120C007064300BF46480069D5
:10C2700006903007000F00282AD00125002425E071
:10C280002846304000281FD000BF404851210901F6
:10C290004018A10040581F2109020840000A0490DC
:10C2A00000BF3A48512109014018A100405803211C
:10C2B00009040840000C0390204601F0DDFB07460E
:10C2C00003990498B84700BF6D00641C042CD7D3B1
:10C2D000F00FC007002852D000244EE02C48005731
:10C2E000401C002848D02A48005D0490C0210498D2
:10C2F00088430746384601F003FC029001F0BCFB7E
:10C3000003900398002836D0C0210498084080117B
:10C3100002900120B840054600BF05200007072114
:10C3200009024018B9004058032109040840000CD4
:10C33000019006982840002802D00198022806D0D3
:10C3400006982840002815D10198032812D1029898
:10C3500003280BD10198022801D1032000E002201C
:10C3600000903846009903F05AFF00BF3846039A00
:10C370000299904700BF00BF641C042CAED307B0E5
:10C38000F0BD000000630040000500500060004068
:10C3900010340020C206D20E01219140014A1160E2
:10C3A0007047000080E200E0C206D20E01219140F9
:10C3B000014A11607047000000E100E0C206D20EA1
:10C3C00001219140014A11607047000000E200E045
:10C3D00010B5002819DA1A4A03071B0F083B9B08FF
:10C3E0009B00D2588307DC0EFF23A3409A438B07A0
:10C3F0001B0E8407E40EA3401A43114B0407240FBD
:10C40000083CA408A4001A5118E00E4A03231B029A
:10C41000D21883089B00D2588307DC0EFF23A34069
:10C420009A438B071B0E8407E40EA3401A43054B67
:10C43000032424021B198408A4001A5110BD000013
:10C440001CED00E000E100E010B5002819DA1A4AFE
:10C4500003071B0F083B9B089B00D2588307DC0E89
:10C46000FF23A3409A438B071B0E8407E40EA340CF
:10C470001A43114B0407240F083CA408A4001A51C6
:10C4800018E00E4A03231B02D21883089B00D258DF
:10C490008307DC0EFF23A3409A438B071B0E840700
:10C4A000E40EA3401A43054B032424021B198408FD
:10C4B000A4001A5110BD00001CED00E000E100E0F6
:10C4C00010B5002819DA1A4A03071B0F083B9B080E
:10C4D0009B00D2588307DC0EFF23A3409A438B07AF
:10C4E0001B0E8407E40EA3401A43114B0407240FCC
:10C4F000083CA408A4001A5118E00E4A03231B02AA
:10C50000D21883089B00D2588307DC0EFF23A34078
:10C510009A438B071B0E8407E40EA3401A43054B76
:10C52000032424021B198408A4001A5110BD000022
:10C530001CED00E000E100E010B5002007490860B4
:10C540000021064841608160C160002003494039F4
:10C550000860486005F086FA10BD000040110140F7
:10C5600010B505F02FF910BD70B50C480068002813
:10C5700011D00A4800688047044600BF2546002DB8
:10C5800007D000BF064AFF212A31284600F03EFAB4
:10C5900000BF00BF01E003F0B5F970BDFC2800202A
:10C5A000E81F020010B503F063FA002805D0074821
:10C5B00007494860C8130749886103F03DFA00281D
:10C5C00002D001200449886010BD0000DFFF07C0D1
:10C5D00000050040006C0040000600401CB52348E8
:10C5E0008068002822D00020204988602048806987
:10C5F000C1B2204800F060FA0446002C08D00120A7
:10C6000069460870019468461B49096888470CE030
:10C61000184802F03BFF012807D100206946087046
:10C62000684615490968884700BF00BF0F48C069C0
:10C63000002805D000200D49C861032004F0DCF873
:10C640000A48406A00280FD000200849486208487C
:10C6500080380468046002206946087001946846C6
:10C6600005490968884700BF1CBD00000021004043
:10C6700000250040CC320020742800200FB410B5F3
:10C6800003A9044B044A029800F026F810BC08BC29
:10C6900004B0184769F50100F428002030B474464E
:10C6A000641E2578641CAB4204D3635D5B00E31811
:10C6B00030BC18471D46F8E702E008C8121F08C141
:10C6C000002AFAD170477047002001E001C1121F13
:10C6D000002AFBD170470000FFB58DB0044600254D
:10C6E00006E025280AD0109A0F999047641C6D1C0B
:10C6F00020780028F5D1284611B0F0BD002701218F
:10C70000484A009700E00743641C23780846203B12
:10C7100098401042F7D120782E2817D104200743E3
:10C720006078641C2A280CD10E98641C02C8009101
:10C730000E900BE000990A22514330394018641CD6
:10C7400000902078014630390929F3D92078002853
:10C75000D1D0642808D0692806D075281ED0109A38
:10C760000F9990476D1C5BE00A200E99019001C95A
:10C770000E91002802DA40422D2102E0390504D54D
:10C780002B216A461172012103E0F90704D0202110
:10C79000F7E70BAE0B910DE00021FAE70A200E99A6
:10C7A000019001C90E91F7E70199FFF7BFFC303105
:10C7B000761E31700028F7D103A8801B203001902D
:10C7C000780701D5009801E0012000900199884286
:10C7D00001DD401A00E000200027009006E002A8DA
:10C7E000109AC05D0F9990476D1C7F1C0B98874273
:10C7F000F5DB04E0109A30200F9990476D1C0099EA
:10C80000481E00900029F5DC05E03078109A761C6F
:10C810000F9990476D1C0199481E01900029F4DC86
:10C82000641C65E70928010010B5054802F02EFEDA
:10C83000002802D000F006F801E000F02DF810BD4D
:10C84000DC32002008B50F480078022802D0012011
:10C850000D49886069460D4800F004F9002802D0AF
:10C8600000F01AF808BD8020094988606846007801
:10C870000849C861022003490870802004494860C3
:10C8800000BFEFE77828002000200040DC320020C5
:10C8900000230040002500401CB501200549C86068
:10C8A000054908700320694608706846034909680D
:10C8B00088471CBD002000407828002074280020F4
:10C8C00000200549087001200449C8604860002024
:10C8D00003490860704700007828002000200040CD
:10C8E00000250040F0B505460B4600211C680EE00F
:10C8F000665C481C275CAF4206D1881C201810607B
:10C90000701E90800020F0BD701C091800BF988830
:10C910008842EDD80520F6E7014600BF064A506878
:10C920000122D2058243044B9A600122D2050240C3
:10C93000DA6000BF704700000005005010B5002409
:10C9400007E0E100064A1268505C012103F0C6FAD4
:10C95000641C044800788442F3D3002010BD00001A
:10C96000A4280020A8280020FEB506460C4617463D
:10C97000052F01D20720FEBD03F0C6FB002806D11B
:10C9800003F09AFB0546002D01D02846F3E7164830
:10C9900006601648047016480760002015490860B4
:10C9A0001549086015E0E0008019019013480068FF
:10C9B0000090019880786946487001990878104A7B
:10C9C000694603F0EFFA0546002D01D02846D2E76C
:10C9D00000BF2046611ECCB20028E4D1094A0021E4
:10C9E000094800F0A9F8C6E7A4280020A8280020DC
:10C9F000AC280020B4280020B8280020981F02008E
:10CA000071F7010019E20100B0280020F8B50446D2
:10CA10000D4616460C2000F0F5FC012100916846F9
:10CA2000007806480460064805600648066072B64D
:10CA300000BF684600780028FBD1F8BDBC28002064
:10CA4000C0280020C4280020F8B504460D4616462C
:10CA500003480768324629462046B847F8BD00001B
:10CA60008831002070B504460D46204602F013FDC3
:10CA700000280AD0A068A18808402168085C2870B6
:10CA8000A068401CA060002070BD0520FCE70346A4
:10CA9000002901D10E207047002A03D0501E1040FB
:10CAA000002801D00920F6E71960501E9880002068
:10CAB0009860D86000BFEEE770B504460D4620468A
:10CAC00002F0E9FCA188884209D8E068A188084002
:10CAD00021680D54E068401CE060002070BD042017
:10CAE000FCE70000F8B505460C4627780C21A06845
:10CAF000484306490E580648006800902A463946C1
:10CB0000204608302369B047F8BD0000B833002044
:10CB10009C28002010B50446064800781422504393
:10CB2000044A121D81182046FFF7DCFF042004F0A0
:10CB3000B9FB10BDEC32002070B503460C46194815
:10CB40000068002801D1082070BD002A01D107200B
:10CB5000FAE7002B01D10720F6E700211CE0242092
:10CB60004843104D2D68285C002814D1012524204D
:10CB700048430C4E3668355424204843094D2D68EF
:10CB80004019447024204843064D2D6840198261A5
:10CB900019600020D8E7491C034800788142DEDB99
:10CBA0000420D1E7CC280020C8280020FFB581B0A0
:10CBB0000E4617461C4620468107890F002901D1E1
:10CBC000012100E00021002902D1072005B0F0BDBD
:10CBD000002C01D10720F9E704F0A2FA26490A98AF
:10CBE0000860264806702648046000250CE00021F5
:10CBF00024206843224A1268115424206843204AA2
:10CC00001268801801756D1CB542F0DB242070435A
:10CC1000041903201B4908701B48046018340025C0
:10CC20000CE0E900184A1268881800210170417070
:10CC300087704460182179430C196D1C032DF0DBBB
:10CC40000020C043114908600020114908701149B3
:10CC500008701420FFF79EFB03211420FFF730FC1F
:10CC60001420FFF7A1FB019804F030FA04F028FA31
:10CC7000094908600020A9E7EC280020C828002006
:10CC8000CC280020D0280020D4280020D82800203C
:10CC9000E8280020E9280020DC280020FEB5044612
:10CCA0000D46164616480068002801D10820FEBD32
:10CCB00014480078844201D2052D01D20720F6E7FE
:10CCC000242060430E490968085C012801D008202F
:10CCD000EDE7242060430A4909684018407801289C
:10CCE00001D1284600E00020074605F0CFF83B467A
:10CCF0002A4621460096019004F06AFED7E700001C
:10CD0000CC280020C828002070B504460D480068D3
:10CD1000002801D1082070BD0B480078844201D35F
:10CD20000720F8E72420604306490968085C0128C9
:10CD300001D00820EFE705F0A9F80546214604F0E8
:10CD400071FEE8E7CC280020C828002010B5044672
:10CD500021460248FFF786FE10BD0000CC320020BD
:10CD6000FFB583B004460E46002061490870614952
:10CD700005980860002E02D1072007B0F0BDB088EA
:10CD800082B25D483168FFF782FE0546002D01D072
:10CD90002846F2E7B08982B25848B168FFF777FEBB
:10CDA0000546002D01D02846E7E7607803220521DB
:10CDB000090707231B02C9188300CA5000BF207847
:10CDC00000218A0005231B0707273F02DB19870084
:10CDD000DA5100BF60784A49C86020784861A0688D
:10CDE00048626079002804D00E2045494031C8626D
:10CDF00003E0002042494031C8622079022843D133
:10CE000003F082F9002806D103F056F90546002DFB
:10CE100001D02846B1E73B4800680290A07802A9FB
:10CE200003F07CF90546002D01D02846A5E7002037
:10CE3000C04333490861A078886031484030C06AF7
:10CE4000012108432E494031C8622E48001D006868
:10CE50000190E0782C4A01A903F0A4F80546002DC2
:10CE600001D0284689E7E078012103F037F8E0781F
:10CE700003F012F9002803D0002003F0BDFC02E00B
:10CE8000012003F0B9FC0EE02079012806D12046EC
:10CE900004F0CEFF01201649087004E004F0A8FF5A
:10CEA0000120134908700C980088002808D1174801
:10CEB00001780C98018015480078401C13490870CF
:10CEC0000020C04312498860A120800048600220F1
:10CED000012181400F4A116000BF0699FFF778FADF
:10CEE0000220012181400C4A116000BF002044E76C
:10CEF0007828002074280020CC320020DC3200206A
:10CF000000250040681F0200F1F701007028002092
:10CF10000023004080E200E000E100E070B504463C
:10CF200021460448FFF7C8FD0546022003F064FCD3
:10CF3000284670BDDC32002070B504460D46002C3A
:10CF400001D0002D01D10E2070BD084800780028C6
:10CF500001D10820F8E706480068022801D1062020
:10CF6000F2E72946204604F089F8EDE74C28002036
:10CF70004428002000200549086001200449087069
:10CF800000200449086004490860704744280020D4
:10CF90004C280020482800204028002070B5054675
:10CFA0000C46002D01D0002C00D170BD194800782E
:10CFB000002800D1F9E72088302817D004DC102899
:10CFC00007D0112821D108E0322814D033281CD1F1
:10CFD00016E0A1885C20415318E062212846FFF743
:10CFE000E8F80021C9435C2041530FE0211D284689
:10CFF00003F062FB0AE0211D284603F01BFA05E05E
:10D00000211D284603F0E0FA00E000BF00BF00BF8A
:10D01000CBE700004C280020F8B504460F46002C52
:10D0200001D10E20F8BD1C480078002801D108204D
:10D03000F8E71A480068002801D10820F2E76120CB
:10D04000005D002801D01120ECE7002014490860A1
:10D05000144908600021602001555C2007536020BE
:10D06000005D2E21484305196020005DC0000E4977
:10D07000401801882980408868805C21085B2A4626
:10D08000012190DF0646002E01D03046CAE701217B
:10D09000612001550020C5E74C28002044280020CD
:10D0A00048280020402800201030002010B50446F9
:10D0B000204601F083FB21460548FFF76FFF21461C
:10D0C000044800F09FF8204603F00CF910BD000062
:10D0D000182900207C290020F8B500BF0023482231
:10D0E0002549082004F0FEF8054600BF2E46002E14
:10D0F00007D000BF21A2FF21D6313046FFF786FCC2
:10D1000000BF00BF00BF00200090002168464170B2
:10D110000221017060DF044600BF2546002D07D0C4
:10D1200000BF16A2FF21E0312846FFF76FFC00BFC9
:10D1300000BF164804F0CAF8044600BF2546002D7B
:10D1400007D000BF0DA2FF21E4312846FFF75EFCA7
:10D1500000BF00BF0E4804F0F9F8044600BF2546A2
:10D16000002D07D000BF05A2FF21E8312846FFF7B8
:10D170004DFC00BF00BFF8BDAC2900202E2E5C2E58
:10D180002E5C2E2E5C6D61696E2E6300ADD00100A9
:10D19000B11602007FB504460D46164B0FCB6E4606
:10D1A0000FC6002C01D0002D02D10E2004B070BD9E
:10D1B0001149684663DF0646002E01D03046F5E788
:10D1C00001200D49891E08800C4804600B4928681D
:10D1D000096888600020C043084909680880002069
:10D1E00006490968488006490348801EFFF7A4FEE7
:10D1F000DCE70000581F02006E2800206028002095
:10D2000051E0010070B505460C46002D01D0002C00
:10D2100000D170BD2088102804D037280AD03828C3
:10D220000DD102E0A08828800AE02146284603F0BC
:10D2300027FA05E02146284603F004FB00E000BF82
:10D2400000BF00BFE5E710B50446002C01D10E2059
:10D2500010BD61882088012200F0CEFBF8E70000B5
:10D26000F8B505460F46164628881649884201D16A
:10D270000820F8BD1448006813490968491C124A7F
:10D280001160242148431149441810460078400792
:10D29000400F11460860E9886183E683211D216201
:10D2A0000021A1830121217632463946201DFEF757
:10D2B00067FF288820800120A07004F04BFC00202C
:10D2C000D7E70000FFFF000064280020AC310020F9
:10D2D000F3B581B006460025002400E0641C042C50
:10D2E00004D2A00029490858B042F7D1042C42D2F8
:10D2F0000298002825D0012802D002283AD133E034
:10D300006000201822490D5C600020184018407809
:10D3100000280ED01F4800680A22504301461E4ACA
:10D320001E480068FFF7BAFC0746002F01D11A48D3
:10D330000670600020181649401880781849085572
:10D3400018E016480068FFF7DFFC1548005D610033
:10D3500061180F4A89188978884204D16000201822
:10D3600011464018857805E06000201808494018EB
:10D37000457800BF00BF002D07D00A48006800288C
:10D3800003D02846074909688847FEBDF41E0200FD
:10D3900004300020202800203828002034280020D5
:10D3A000392800203028002030B503460020042B07
:10D3B00024D2012A07D1012903D11C460D34E4B23D
:10D3C00000E00024224600290FD0012902D00229C2
:10D3D00011D104E05C001C19094D2A550DE05C00D8
:10D3E0001C19074D6419627007E05C001C19044D9C
:10D3F0006419A27001E0072000BF00E0072030BDE3
:10D400000430002070B50446002506480078C007A7
:10D41000C00F002803D0204600F070F805462846CB
:10D4200070BD000024280020F7B505460E460024F4
:10D4300027480660274805602749029808600220AF
:10D440002840002822D0002706E001221146384655
:10D45000FFF7AAFF04467F1C042F01D2002CF4D052
:10D46000002C05D1720804211C48FFF77DFA044600
:10D47000002C02D1FFF762FA0446002C05D1184AAD
:10D4800000211848FFF758FB044600BFE807C00F0B
:10D4900000280AD000BF0F204005134988600020F3
:10D4A000C86000BF0F2040058861002C05D10F4ADD
:10D4B00000210F48FFF740FB0446002C05D10D4A20
:10D4C00001210D48FFF738FB04462046FEBD000051
:10D4D000202800202428002030280020041F0200DB
:10D4E000E9D901003428002000050050ADFB0100FF
:10D4F0002828002019C901002C280020F8B504466E
:10D50000002500262300FFF7C9F8180D18195C9FA5
:10D51000F7F5F4F3F2F1F0EFEEEDECEBEAE9E8E722
:10D52000E6E5E4E300BF0B204005FB4988600020EE
:10D53000C86000BFF94804704FE200BF00BF05207B
:10D540008005F54988600020C86000BF0846406833
:10D550000F214905484001214905084000280FD006
:10D5600000BF0846EC4988600020C86000BF022C5C
:10D5700002D1E120C00001E07D20400106460EE01E
:10D5800000BF01204005E449C8600020886000BF5A
:10D59000022C01D1C82001E0FF2091300646DF486F
:10D5A000047064213046FEF7C1FDDD490968484337
:10D5B000074600223946DB480068FFF76FFB054647
:10D5C0000BE200BF05208005D34988600020C860B9
:10D5D00000BF084640680F21490548400121490520
:10D5E000084000280FD000BF0846CB4988600020C3
:10D5F000C86000BF032C02D11920400101E07D204A
:10D60000400106460EE000BF01204005C249C86047
:10D610000020886000BF032C01D1C82001E0FF205A
:10D6200091300646BD48047064213046FEF77EFD09
:10D63000BB4909684843074600223946B948006893
:10D64000FFF72CFB0546C8E100BF05208005B24965
:10D6500088600020C86000BF084640680F21490567
:10D66000484001214905084000280FD000BF084666
:10D67000A94988600020C86000BF042C02D17D2029
:10D68000400101E07D20400106460FE000BF01207F
:10D690004005A149C8600020886000BF042C02D169
:10D6A000FF20913001E0FF20913006469B48047036
:10D6B00064213046FEF73AFD994909684843074618
:10D6C0000022394697480068FFF7E8FA054684E1EA
:10D6D00082E176E174E161E14EE13BE12FE1F4E0CA
:10D6E000F2E0F0E0EEE0ECE0E2E0C9E0B2E099E088
:10D6F00082E06FE042E0FFE700BF05208005864939
:10D7000088600020C86000BF084640680F214905B6
:10D71000484001214905084000280ED000BF0846B6
:10D720007D4988600020C86000BF052C01D1C82059
:10D7300001E07D20400106460EE000BF01204005CB
:10D740007549C8600020886000BF052C01D1C82041
:10D7500001E0FF2091300646704804706421304695
:10D76000FEF7E4FC6E490968484307460022394643
:10D770006C480068FFF792FA05462EE100BF0520CD
:10D780008005654988600020C86000BF0846406881
:10D790000F2149054840012149050840002806D0CD
:10D7A00000BF08465C4988600020C86007E000BFF1
:10D7B000012040055849C8600020886000BF5748D4
:10D7C000047057480022016856480068FFF766FA5F
:10D7D000054602E100BF052080054F498860002012
:10D7E000C86000BF00BF01204005C86000208860FD
:10D7F00000BF4A480470F0E000BF47494868012173
:10D8000089058143444A9160012189050140D16025
:10D8100000BF43480022016842480068FFF73EFA13
:10D820000546DAE000BF3C4948680121890581438B
:10D83000394A9160012189050140D16000BF384813
:10D84000006882008118002236480068FFF726FA37
:10D850000546C2E000BF304948680121890581437F
:10D860002D4A9160012189050140D16000BF2C48FB
:10D87000002201682B480068FFF710FA0546ACE06B
:10D8800000BF25494868012189058143224A9160EA
:10D89000012189050140D16000BF21480068820054
:10D8A000811800221F480068FFF7F8F9054694E048
:10D8B00000BF0F2040051849C8600020886000BFE5
:10D8C0008BE000BF00BF00BF00BF17480068FFF734
:10D8D0001BFA05461120061B002E27D0002D25D14E
:10D8E000012E10D9C821714308466421FEF71EFCA1
:10D8F0000B49096848430746002239460A48006830
:10D90000FFF7CCF9054600BF0120C0050249C860F9
:10D910000020886012E00000000500501C28002054
:10D9200020280020282800202C28002000BF0120CB
:10D93000C0052B4988600020C86000BF4DE000BFD3
:10D940000F204005264988600020C86000BF254898
:10D95000047042E000BF0720800521498860002054
:10D96000C86000BF00BF01204005C860002088607B
:10D9700000BF1C48047030E000BF0D20400518496E
:10D9800088600020C86000BF00BF01208005C8601B
:10D990000020886000BF134804701EE000BF032011
:10D9A000C0050F4988600020C86000BF00BF032089
:10D9B0004005C8600020886000BF0A4804700CE081
:10D9C00000BF00BF0F2040050549C86000208860E7
:10D9D00000BF0448047000E000BF00BF2846F8BD47
:10D9E000000500501C28002010B5044620780221B4
:10D9F000FFF76EFC10BD0000F7B5064615462F4632
:10DA00001348006812490968491C114A1160242111
:10DA1000484310494418104600784007400F11460B
:10DA20000860019961830221E183211D21620021A7
:10DA3000A183012121762771FF20000238400112C5
:10DA4000617126800120A07004F084F80020FEBDE2
:10DA500064280020AC3100200021C9438200054B1E
:10DA60009950042804DB0B46011F024A40325354EC
:10DA700070470000D033002001468800014A10584A
:10DA800070470000D0330020F7B585B00B4600206A
:10DA9000C0430490002A01D0002000E0042003903D
:10DAA000002A01D0042000E00820029003991EE023
:10DAB0008800124C2058401C002817D10846059CAD
:10DAC0000093019246B20D4D20352E5585000B4E28
:10DAD000009B7351019A002A04D166B2051F074FBB
:10DAE00040377E5500BF48B2049003E0491C0298BD
:10DAF0008142DDD300BF049808B0F0BDD0330020D0
:10DB00000146014840567047F033002038B50446BE
:10DB10006020005D2E21484305195F20005D00282C
:10DB200011D05F22125D521ED1B26022125D2E23EF
:10DB30005A4315190C224A43AB1DD0180289521CB6
:10DB40006B461A8002E0688D69460880A88D694698
:10DB500048805C21085B694692DF38BDF0B587B02C
:10DB60003E480078142148433C49091D4418E768A1
:10DB70000C21A06848433A494018008906900C21BE
:10DB8000A068484336494018408905900C21A06898
:10DB90004843334940184068049002F0F5FF0146BD
:10DBA00002903846FEF7C2FA002901D1012000E0B8
:10DBB0000020039005990698484304994618608808
:10DBC000C019A1884518002026490860039800283C
:10DBD00004D002F0D9FF618888420AD00398002857
:10DBE00004D0B54202D1A088002802D0A068032842
:10DBF0000CD102F0C9FF014602903846FEF796FAB2
:10DC000019490860032003F04DFB24E002F0BCFF3B
:10DC10000190A188C8190199FEF788FA880813496C
:10DC2000086002F0B1FF014601902846FEF77EFA37
:10DC3000002901D1012000E000200290B54206D069
:10DC40000298002803D1B1B2A8B203F04BFD022024
:10DC500003F028FB00BF07B0F0BD0000EC3200204D
:10DC6000B83300208C28002090280020882800202D
:10DC700010B508480078142148430649091D441886
:10DC80002078042802D000F0A5F801E003F09EFC03
:10DC900010BD0000EC32002010B50F4800781421B0
:10DCA00048430D49091D441860880C4908602078D4
:10DCB000012804D0032805D0042809D105E003F089
:10DCC00085FC06E0FFF74AFF03E004F0D1F800E02E
:10DCD00000BF00BF10BD0000EC3200209C280020D7
:10DCE00010B503484078002801D0FFF7D5FF10BDDC
:10DCF000EC3200200023142141430C4A53541421D8
:10DD0000414389184B8002231421414389188B60B9
:10DD10000023142141438918CB6014214143891801
:10DD20000B611421414389188B807047F032002029
:10DD3000FFB581B0064617461C4840780A2830D007
:10DD40001A4800781949497844180A2C00D30A3C2B
:10DD5000142060431549091D0E54142060434018D7
:10DD60000761142060434118029805C8CA608860A2
:10DD7000142161430D4A121D89180498488014210A
:10DD8000614389180A988880101F4078401C111F31
:10DD9000487007480078002801D1FFF77DFF002573
:10DDA00000E00425284605B0F0BD0000EC3200205C
:10DDB0008428002010B50020054908704870002410
:10DDC00003E02046FFF796FF641C0A2CF9D310BD30
:10DDD000EC32002010B50848007814225043064A5F
:10DDE000121D81180020FEF77DFE00F007F80020CC
:10DDF00003F058FA10BD0000EC32002010B50949BC
:10DE00000878FFF777FF07484078401E05494870BB
:10DE100008460078401CC0B208700A2801D10020D2
:10DE2000087010BDEC320020FEB51E480068401C92
:10DE3000002834D01B480068242148431A49096847
:10DE40004018456803F03CF90190184804682146E1
:10DE5000019803F073FCC61C15480078002801D116
:10DE600003F040F9AE4201D2284600E030460419E2
:10DE70002402240A20460F49086000BF03F020F95D
:10DE800000900199009803F059FCC71C20460199A5
:10DE900003F054FC874201D903F032FE01E003F0A5
:10DEA0003FF9FEBDD8280020CC280020DC28002027
:10DEB000F02800204015014070B503460C460820AC
:10DEC000002115E00C254D430B4EAD19AD7A2540D0
:10DED000002D0CD0094DAB4205D00C254D43AD199A
:10DEE0002D899D4202D11160002003E00520491CCC
:10DEF0000029E7D000BF70BD7C310020FFFF00008B
:10DF000010B5044601210C2060430A4A8018817232
:10DF1000891E0C20604380180181FF210C20604382
:10DF20008018C1720C21614388180721FEF741F95E
:10DF300010BD00007C31002010B514484068C105B8
:10DF4000C90D002920D00A46103A50B200280DDA37
:10DF50000E4B1C330407240F083CA408A4001B59D3
:10DF60008407E40EE3401B069B0F0BE0084B0324E1
:10DF700024021B198408A4001B598407E40EE34003
:10DF80001B069B0FD8B210BD0420FCE700ED00E09B
:10DF900000E100E010B51C48006808210840002896
:10DFA0002FD11A480068401C1849086018480068BA
:10DFB000002803D0042003F071FB24E001F08EFD63
:10DFC000002803D0022003F069FB1CE01148006820
:10DFD000002813D00C480078C007C00F002809D1D2
:10DFE000094800680121084307490860002003F040
:10DFF00055FB08E0032003F051FB04E003F022FB93
:10E0000001E003F02FFB10BDA02800209028002085
:10E01000882800208C28002010B50C4800680821B2
:10E02000084000280FD10948006802210840002854
:10E0300005D0064800680121084304490860022011
:10E0400003F02CFB01E003F00DFB10BDA028002025
:10E0500030B587B004462078002860D1A088012818
:10E060005DD1A0792F498978884258D160882E499E
:10E0700009680880002544E00C20294641432046D9
:10E080000A30405A03281ED10C202946414320461D
:10E090000A300818807823498978884213D10C20E7
:10E0A0002946414320460A30081840891E4909681C
:10E0B00048800C202946414320460A300818008930
:10E0C0001949096888800C202946414320460A30B6
:10E0D000405A022814D10C202946414320460A30D8
:10E0E000081880780F498978884209D10C20294680
:10E0F000414320460A30081800890B490968C88046
:10E100006D1C207AA842B7D80120694608710648DC
:10E11000006801A9826804480068904700BF07B002
:10E1200030BD00006C2800206028002070B5FEF78C
:10E1300021FF044600BF2546002D06D000BF04A2E3
:10E1400007492846FEF762FC00BF00BF70BD000013
:10E150002E2E5C2E2E5C2E2E5C6D61696E2E630061
:10E160006B020000F0B585B004460F460020019018
:10E170006020005D2E21484305195F20005D0C21C1
:10E180004843A91D401802905F20005D401C29797A
:10E19000884207D103AB00222046029901F021FCFE
:10E1A000019029E05F20065D21E02879401EB04201
:10E1B00002D10020009005E0701C0C214843A91DED
:10E1C0004018009003AB2046009A029901F009FC28
:10E1D000002802D0012001900CE0009802905F20FE
:10E1E000005D401CC1B25F200155701CC6B2287989
:10E1F000B042DADC00BF00BF0198002804D1012042
:10E200003870002005B0F0BD002038705C21085B3C
:10E2100003A993DFF6E70000F8B5002535E0E80034
:10E220001C490968441821780120884006461A488C
:10E2300000683040002826D017480068B0431649CF
:10E240000860207801F028FF0746217801208840E7
:10E25000124909680840227839469140884211D114
:10E260006078012800D100E000207840012148407A
:10E2700000906068002804D0009BD9B220786268C2
:10E28000904700BF00BF681CC5B2054800788542B2
:10E29000C5DBF8BDA4280020B8280020B428002041
:10E2A000A8280020FEB504460E46A1786A462848F4
:10E2B00002F078FB0546002D49D160780C214843D7
:10E2C00024494018807A40210840402801D0022E7D
:10E2D00001D1214F04E0012E01D1204F00E0204F59
:10E2E000A078182250431F4A81180023182268463C
:10E2F000B8470546002D1AD1022E18D060780C219F
:10E30000484314494018807A4021884361780C22A0
:10E310005143104A8918887260781C225043124A6F
:10E32000811818231C226846B847054600BF022EF4
:10E330000DD020780C2148430C494018807A800089
:10E340000B490A58214668469047054600BFFEBD66
:10E35000502800207C3100205D0F0200310E0200A9
:10E3600061150200AC3000205431002088310020BB
:10E37000241F0200F8B505460E461B4F00242EE070
:10E380001820604319494018C07DFF2826D13078F5
:10E39000022814D0182060434018C07D0221884311
:10E3A00018216143114A8918C875182161438918D9
:10E3B0000846103007223146FDF7E2FE0BE0182038
:10E3C00060430A494018C07D410849001820604355
:10E3D000064A8018C1752C70002702E0641C072CC7
:10E3E000CED300BF3846F8BD43800000AC300020DB
:10E3F000F8B505460E46052700240FE018216143B5
:10E40000094A89180846103007222946FDF7DCFE24
:10E41000002802D13460002702E0641C072CEDD3F1
:10E4200000BF3846F8BD0000AC300020F7B50E46FE
:10E430001546307815286FD008DC11280DD0122829
:10E4400034D0132845D0142874D153E0212864D047
:10E45000222871D02328F7D17BE0162001F012FF8B
:10E4600044A0FEF70BF9042246480099FDF788FE08
:10E47000706801884448FEF7CFFD044600BF274678
:10E48000002F06D000BF41A2AA213846FEF7BEFAEF
:10E4900000BF00BF41480078401C40490870084652
:10E4A0000078012801DA02F067FE60E06221364858
:10E4B000FDF77FFE162001F0D5FE384800780128D0
:10E4C00001D102F059FE35480078401E33490870EA
:10E4D0004DE02C4800F018FE044600BF2746002FF0
:10E4E00006D000BF29A2C6213846FEF78FFA00BF2A
:10E4F00000BF3CE02A48FEF7A6FE044600BF2746C0
:10E50000002F06D000BF21A2CD213846FEF77EFAAB
:10E5100000BF00BF2BE0FFE729E000BF2F46002F20
:10E5200006D000BF19A2D5213846FEF76FFA00BF0A
:10E5300000BF1CE01AE0FFE700BF2F46002F06D007
:10E5400000BF12A2D9213846FEF760FA00BF00BF13
:10E550000DE000BF2F46002F06D000BF0BA2DD212B
:10E560003846FEF753FA00BF00BF00E000BF00BF0F
:10E570000020FEBD436F6E6E6563746564200D0AF6
:10E580000000000001280020182900202E2E5C2EFB
:10E590002E5C2E2E5C6D61696E2E630005280020B6
:10E5A0007C2900207FB502F0F5FA044600BF25461D
:10E5B000002D07D000BF2FA2FF21F8312846FEF71B
:10E5C00025FA00BF00BF01200090684600F0BCFBA8
:10E5D000044600BF2546002D06D000BF25A22949CC
:10E5E0002846FEF713FA00BF00BF052102A801303C
:10E5F000FDF7DFFD24480190022168460172407A50
:10E600004108490068464172407A02218843014628
:10E6100068464172407A1C21884301460C316846A5
:10E620004172407A2021884369464872072101A837
:10E6300081711021C171007A40084000401C01A97D
:10E64000087201A8007A02218843801C01A908727F
:10E650000E4800F01FFD044600BF2546002D07D0E0
:10E6600000BF04A2074916312846FEF7CFF900BFC4
:10E6700000BF7FBD2E2E5C2E2E5C2E2E5C6D616940
:10E680006E2E6300010200002DE40100002800202E
:10E69000F8B504460D466020005D2E214843071959
:10E6A000384602F0CBFC0646002E3CD01E480068DF
:10E6B000022838D25C20015B1B4800683822504396
:10E6C0001A4A80184180002D12D000211648006897
:10E6D00038225043154A11541349096838225143CE
:10E6E000124A8918081D2E223946FDF749FD06E019
:10E6F00002210D480068382250430C4A11540A4840
:10E7000000683821484309494018466306480068B4
:10E71000401C0549086008460068054909688842A8
:10E7200001D102F0BFF8F8BD4028002020300020C1
:10E7300044280020F8B504460D466020005D2E21D7
:10E7400048430719384602F079FC0646002E2ED0C1
:10E750001748006802282AD25C20015B1448006830
:10E7600038225043134A8018418001211048006824
:10E77000382250430F4A11540D480068382148434D
:10E780001146401845600A48006838214843114640
:10E790004018466306480068401C05490860084662
:10E7A000006805490968884201D102F07BF8F8BD8C
:10E7B000402800202030002044280020F0B591B0EF
:10E7C0000546002600200E9000BFFE480078002875
:10E7D00001D111B0F0BD00BF00BFFB4800680028A8
:10E7E00000D1F6E700BF0DA800F0A0FA044600BF74
:10E7F0002746002F06D000BFF44AF5493846FEF7F9
:10E8000005F900BF00BF002009900024281D0B90CF
:10E810002A2168460186FF2108A88175002101751B
:10E82000002010902888102813D0A88810AA022150
:10E83000FFF742FB0446002C0BD10C2110984843F3
:10E84000E4494018C17A08A881751098C1B208A897
:10E850004175288817287DD006DC10280BD0112898
:10E8600079D0132878D1D2E0182876D01C2875D01A
:10E870005228F7D1F9E110AF3A460121D648FFF707
:10E880001BFB02900298002807D102210C22386855
:10E890005043D04A8018817201E00420029002980F
:10E8A0000446002C62D10126112108A8017210989B
:10E8B000C1B208A84175A9880C2210985043C54AD6
:10E8C0008018018102210C2210985043C14A8018FF
:10E8D00081720C2210995143BE4A88180722A91D43
:10E8E000FDF74EFC0FA9A81DFFF782FD0446002C82
:10E8F0003CD10F98C1B20C2210985043B54A8018F1
:10E90000C1720C211098484311464018807A0821A2
:10E9100008430C2210995143AE4A8918887208A9FD
:10E920000F9888750F9881B201AAAC4802F03AF8A6
:10E930000446002C19D11C2210995143A84A88186A
:10E9400018231C2201A902F069F99F48807A8000EF
:10E95000A44904E08DE00AE095E10AE18EE10A585D
:10E960000DA901A89047044600BF00BF8CE10C210F
:10E970001098484397494018807A022188430C2216
:10E9800010995143934A891888720C211098484372
:10E9900011464018807A0821084008280ED10C2121
:10E9A0001098484311464018807A802108408028FA
:10E9B0000FD100210DA8FFF775FC0AE008A8807DA3
:10E9C000FF2806D008A9887D01F042FFFF2008A992
:10E9D00088750C21109848437E494018807A04219C
:10E9E0000840042807D101200E907748407A40085B
:10E9F00040007549487210210C2210985043754A06
:10EA0000801881720126122008A908723CE10026B4
:10EA1000002006900021079108911C21109848437E
:10EA20006F49401803900C211098484369494018D9
:10EA3000C07A182148436C49401804900020059082
:10EA4000A88803AB002211467FDF0446002C01D0CA
:10EA500009940DE00C21109848435E494018807AD3
:10EA6000042108430C22109951435A4A891888728C
:10EA70000AE15548407A40084000534948720C2149
:10EA80001098484353494018807A042188430C2247
:10EA9000109951434F4A89188872142008A90872A6
:10EAA000012601200E90A879002802D0A8790990AB
:10EAB0005EE0E8794007C00F002859D008A8807DA3
:10EAC000FF2855D00C211098484342494018807ABD
:10EAD000082108430C22109951433E4A8918887234
:10EAE000A87A8007C00F00280FD008A8807D1821C1
:10EAF00048433D494018C07D4108490008A8807D31
:10EB000018225043384A8018C1750C211098484388
:10EB100030494018C07AFF282AD00C211098484369
:10EB20002C49085C02281FD00C23109A5A430B462C
:10EB3000D11808AA927D18235A432B4BD21810469D
:10EB400010300722FDF71CFB08A8807D18214843E0
:10EB500025494018C07D0221884308A9897D1822D3
:10EB60005143214A8918C87501210DA8FFF79AFB66
:10EB70008AE0A8790009012856D1A8790007000F7A
:10EB8000012851D10C211098484312494018807A2D
:10EB900008210840082847D10C2210995143134AF4
:10EBA0008918081D0621FDF704FB162008A9087224
:10EBB00001200E900C211098484306494018807A95
:10EBC000202115E05C280020883100209C1F0200D5
:10EBD0008A0900007C310020FFFF0000502800203F
:10EBE00054310020341F0200AC300020703100206E
:10EBF00008430C2210995143474A891888720C2106
:10EC00001098484311464018807A402108430C224E
:10EC100010995143404A891888724048407A02212D
:10EC200008433E4948721CE00C21109848433A4979
:10EC30004018807A802108430C2210995143364AAB
:10EC400089188872152008A908723448807A8000D3
:10EC5000334A11580DA888470446002C01D031488A
:10EC600009900020099001260EE02C48807A80004F
:10EC70002B4A11580DA88847099005E0132008A9D0
:10EC80000872012600E000BF00BF002E16D00AA9BE
:10EC90000DA8099AFDF7D8FE08A8007A12280DD110
:10ECA00000BF0C21109848431B494018807A012866
:10ECB00002D01098FFF724F900BF00BF0E9800287B
:10ECC00027D01648407A02210840022821D107AAFD
:10ECD00020211548FFF7F0F80446002C12D100213E
:10ECE00008A801700798C1B208A841700C210798C4
:10ECF000484309494018C17A08A8817000F0C0FD56
:10ED0000044605E00548407A0221884303494872D9
:10ED100000BF00BF5DE500007C310020883100208D
:10ED2000441F020041800000FFFF0000014600294F
:10ED300001D104487047FF20087048708870C8707F
:10ED40000020F7E70E8000007FB50646002E02D1B6
:10ED5000364804B070BD00240FE000BF00210C2035
:10ED60006043334A11500C206043801841720C20DC
:10ED700060438018817200BF641C002CEDD0002419
:10ED800003E02046FFF7BCF8641C002CF9D02948AA
:10ED90000021016041608160002403E0204601F011
:10EDA00057FD641C072CF9D35C216846818107213B
:10EDB000C18121480290214902A801F0ADFF05461A
:10EDC000002D30D101201E4908703078002821D153
:10EDD00000241CE0A1B26A46184801F0E3FD054694
:10EDE000002D0FD118216143164A881800231822DC
:10EDF000694601F013FF0546002D07D00020104999
:10EE0000087006E000200E49087002E0641C072C20
:10EE1000E0D308E06A469089D289504381B207481E
:10EE200001F012FE0546284693E700000E80000020
:10EE3000883100207031002049EE01005028002068
:10EE40005C280020AC300020FFB591B01D4600BF0B
:10EE500084480068002801D115B0F0BD00BF1A98A1
:10EE60005C2800D9F8E7012007900DA8FFF75EFFA6
:10EE7000064600BF3746002F06D000BF7A4A7B49BE
:10EE80003846FDF7C3FD00BF00BF002108A801758B
:10EE900001760C951A980B90002712E0B9B208AAD7
:10EEA000734801F07FFD0646002E09D1082208A90B
:10EEB0001198FDF789F9002802D108A98F7502E0A1
:10EEC0007F1C072FEAD300BF08A8807DFF2878D0D9
:10EED000129803280AD11A985C2803D1202008A987
:10EEE000087699E0402008A9087695E06149681AFB
:10EEF0001821FDF71BF90446072C1DD20AA80F9014
:10EF00001398002810D108A9887D012181405A4A10
:10EF100012681140002901D0012100E000210029E0
:10EF200002D10020079077E008A9887D02F0A4FFB5
:10EF3000202008A908766FE05049681A1C21FDF7C7
:10EF4000F5F80446002C1AD10AA80F90202108A831
:10EF50000176447500200490494905911C206043C6
:10EF600046494018019008A8807D1821484341492E
:10EF70004018029001A80C9018200B904CE04149D9
:10EF8000681A0C21FDF7D2F80446002C1AD1302162
:10EF900008A8017644750121C1750C2060433A49E7
:10EFA0004018807A02210840022835D008A8407D08
:10EFB0000C214843334940180021016041608160C1
:10EFC0002AE04DE000200790402008A908762F484D
:10EFD000854204D103201290012007901CE008A86C
:10EFE000807D80002A490858A84215D10120079049
:10EFF0000AA80F9000200CE008A98A7D0C2141434B
:10F00000214BC918C97A8A4202D108AA507502E078
:10F01000401C0028F0D000BF0798012820D112988A
:10F02000032806D108A9087E0321084308A9087609
:10F030000FE01298022806D108A9087E0121084392
:10F0400008A9087605E008A9087E0221084308A956
:10F0500008760AA80F900EA90DA8139AFDF7F4FCE4
:10F0600000BFF9E6883100209C1F02005D0500000A
:10F0700050280020AC3000205828002054310020B7
:10F0800094310020703100207C310020541F020098
:10F090009030002070B505460C4600BF1748007838
:10F0A000002801D1164870BD00BF002D02D11448C0
:10F0B000801DF8E7002C02D11148801DF3E720687D
:10F0C000002802D10E48801DEDE70E480068002898
:10F0D0000FD10C49206808600522611D0948001DF8
:10F0E000FDF74EF820790749887200202870002625
:10F0F00001E0034E361F3046D5E700005C280020B3
:10F100000880000088310020F8B5044600BF504850
:10F110000078002801D14F48F8BD00BF002C02D173
:10F120004C48801DF8E700BF2078012806DA2078D7
:10F130000C21484348490858002801D14548EBE7CD
:10F1400000BF00BF6078012807DA60780C214843CF
:10F1500042494018807A012802D13E480830DBE756
:10F1600000BF3C4D60780C2148433C494018807AF0
:10F1700002210840022868D1A078FF2807D16078D2
:10F180000C21484335494018C07AFF281BD06078CD
:10F190000C21484331494018C07AA07063781C267E
:10F1A00073432F4E9A1963781C2673432C4E9B1978
:10F1B0001946123163780C267343284E9B1918891F
:10F1C00081DF054641E060780C225043234A8118D4
:10F1D0006846FFF7CFF80546002D35D1684601781F
:10F1E00060780C2250431D4A8018C172684600782E
:10F1F000A07020780C21484317494018407AC00776
:10F20000C00F00281CD060780C21484311464018DC
:10F21000807A2021084361780C2251430F4A8918D3
:10F22000887220780C2148430B494018407A02210B
:10F23000084321780C225143074A8918487203E099
:10F24000204600F01DFB054600BF284664E700008D
:10F250005C28002008800000883100207C310020DC
:10F2600054310020F8B5044600BF3E48007800281D
:10F2700001D13D48F8BD00BF002C02D13A48801DA5
:10F28000F8E7002902D13848801DF3E70868002814
:10F2900002D13548801DEDE78868002802D1324848
:10F2A000801DE7E700BF2078012806DA20780C25CA
:10F2B00068432E4D2858002801D12B48DAE700BFBB
:10F2C000002200230020009000BF45E000250095AB
:10F2D00000BF12E00C266E43254FF619F67A8642DF
:10F2E0000AD10C266E43F619B67A02273E40022E4A
:10F2F00002D10126009602E06D1C002DEAD000BF6D
:10F30000009D002D27D10D7B9D420FD91825454327
:10F31000184EAD19ED7DED07ED0F002D06D1182526
:10F320004543AD199F008E68F5515B1C0D799542E0
:10F3300011D9182545430F4EAD19ED7D02263540F4
:10F34000002D08D1182545430A4EAD1910359700F8
:10F350000E68F551521C401C0728B7D30A710B7375
:10F36000002087E75C28002008800000883100200A
:10F370007C310020AC300020014614480078144A4B
:10F38000127890421DD011480078401C0F4A10702E
:10F3900010460078022801D1002010700B48007838
:10F3A00080000C4A105808600B4A086812688018E0
:10F3B000094A1060104600680002000A106001202F
:10F3C00070470020086000BFFAE70000E82800202E
:10F3D000E9280020E0280020DC28002010B50D4896
:10F3E000006808210840002810D10B480068401C24
:10F3F0000949086000F072FB002802D1FEF738FCD2
:10F4000006E00648007801F04DFF01E000F030FD15
:10F4100010BD0000A0280020902800208428002093
:10F42000F0B50346002426E0164E366824277E43B6
:10F43000154F3F68F01946689E4203D94668F61A90
:10F4400046601DE046689B1B4668341900264660EE
:10F4500006750C4E35680B4F066A3E600669002E35
:10F4600008D00E193602360A86600669C66016682C
:10F470000662156000BF03480068401C0028D3D115
:10F4800000BFF0BDD8280020CC28002001468A68A3
:10F49000C868801A704701468A68C868801A704731
:10F4A00010B50446002C02D0112C08D100E00AE06F
:10F4B00006480068082108430449086003E0204624
:10F4C000FDF728FB00BF00BF10BD0000A0280020F2
:10F4D00010B50C480068401C0A49086003280DD08C
:10F4E00009480078022804D00748007801F0DAFEC5
:10F4F00007E00648007802F0D1F802E00D20FDF7A1
:10F5000009FB10BD942800208428002085280020B5
:10F5100010B50A480078012804D0022808D0032832
:10F5200009D102E002F058F806E0FFF757FF03E0C8
:10F5300002F0A8F800E000BF00BF10BD8428002042
:10F5400070B50446204628DF0546FFF7A9FF70BDC9
:10F55000F8B504460D46164632462946204629DFB0
:10F560000746FFF79DFFF8BD70B504460D46E0B2B3
:10F57000FDF7D4FC204670BD0146002070470246CE
:10F58000002070470246002070470000F8B504468E
:10F590000026002760780C2148431A4908580028A3
:10F5A0001FD060780C21484317494018807A802189
:10F5B0000840802815D160780C2148431249401832
:10F5C000807A4021084040280BD060780C214843C5
:10F5D0000C494018061D60780C2148430949085A17
:10F5E00087B261780C225143074A8918088903239E
:10F5F0003A463146A9DF0546002D00D0034D284686
:10F60000F8BD0000703100207C31002041800000F6
:10F6100070B505460C4661780C2251430C4A881897
:10F6200034230C22294601F0F9FA0646002E0DD1AA
:10F6300060780C21484306490858401C002805D131
:10F64000002160780C225043014A1150304670BDB1
:10F6500070310020FEB507460C4606200290617806
:10F660000C225143284A89180889032302AA6946B3
:10F67000AADF0646002E45D161780C225143234A69
:10F680008918081D69460A89FCF79EFD002813D1D8
:10F6900060780C2148431C494018807A02210840B8
:10F6A00002282FD060780C214843184940180021C7
:10F6B00001604160816025E060780C214843134976
:10F6C0000858002801D0124D00E0124D6946098902
:10F6D00060780C2250430D4A115061780C2251433E
:10F6E0000A4A8918081D69460A89FCF749FD6078AD
:10F6F0000C225043054A811834230C223846A8476F
:10F70000064600BF0020FEBD7C3100207031002085
:10F710005D0F0200310E020070B505462846FFF766
:10F7200035FF0446002C02D100BF00BF044620462E
:10F7300070BD70B505460E4631462846FFF768FF96
:10F740000446002C02D100BF00BF0446204670BD15
:10F7500070B505460E4631462846FFF77BFF044646
:10F76000002C02D100BF00BF0446204670BD00003F
:10F77000F8B505460F460120A84004461848006821
:10F78000FDF7C2FA0646002E00D0F8BD1548006805
:10F79000204000281DD1284600F07EFC002805D01E
:10F7A0001148006820431049086004E00E480068D2
:10F7B000A0430D4908600B480068204309490860D0
:10F7C00000220A48016806480068FDF767FA064605
:10F7D00004E004480068A0430249086000BFD4E781
:10F7E000B0280020B8280020B4280020AC28002031
:10F7F00070B504460D46204600F04EFC002803D0AC
:10F80000002000F0F9FF02E0012000F0F5FF70BDDC
:10F8100010B51848006808210840002826D100F0DB
:10F8200089F900280CD000201349086011480068AD
:10F83000012108430F490860002001F02FFF17E065
:10F8400000F04CF9002806D000200B490860022087
:10F8500001F024FF0CE009480068002803D00320D1
:10F8600001F01CFF04E001F0EDFE01E001F0FAFE02
:10F8700010BD0000A0280020882800208C2800202F
:10F8800070B5044622780C235A431C4BD218111D24
:10F8900062780C235A431A4BD21810897EDF054632
:10F8A000002D29D120780C21484314494018407A72
:10F8B0000121084321780C225143104A89184872CB
:10F8C00060780C2148430E494018807A042108438F
:10F8D00061780C2251430A4A8918887260780C2199
:10F8E000484311464018807A2021884361780C22D1
:10F8F0005143034A89188872284670BD8831002018
:10F900007C310020F8B529480078002800D1F8BDE6
:10F9100027480068002801D1012000E000200546AA
:10F9200024480068002801D1012000E0002006469C
:10F9300000BF002D14D1684651DF0446052C01D1CB
:10F9400001250CE0002C06D000BF1B4A6521204693
:10F95000FDF75CF803E0164900980968884700BF86
:10F96000002E1AD115480088009069461448006896
:10F9700061DF0446052C01D101260DE0002C06D0E4
:10F9800000BF0D4A7C212046FDF740F804E00C48FA
:10F99000006808490968884700BF002D02D0002E82
:10F9A00000D000E0C5E700BF00BFB0E7002900209D
:10F9B000102900200C290020E81F0200082900203F
:10F9C0000429002010B502460B896020805C2E249B
:10F9D00060438018808D834201DA012010BD002031
:10F9E000FCE770B50446002A16D10D896020005D41
:10F9F0002E2670430019808D854201D1002070BDF4
:10FA00000889401C18806020005D2E25684300197D
:10FA1000808D58800120F2E70889401CD588A842D3
:10FA200001D10020EBE70889401C1880D088401ED7
:10FA300058800120E3E700000C48008CC0B2012888
:10FA400012D10A48808C0007000F00280CD107480B
:10FA5000806AF0210840402806D10448C06A084066
:10FA6000002801D1012070470020FCE7C00F00F002
:10FA70001948008CC0B201282CD11748808C00078F
:10FA8000000F002826D11448806AF0210840002881
:10FA900006D11148C06A0840002801D101207047F2
:10FAA0000D48806AF0210840102806D10A48C06A33
:10FAB0000840002801D10120F1E70748806AF021C1
:10FAC0000840302806D10448C06A0840002801D107
:10FAD0000120E4E70020E2E7C00F00F0F8B512488B
:10FAE0000078142148431049091D4518EF6801F0BA
:10FAF0004BF800906988C919AA888918481E00998E
:10FB0000FCF714FB064609480068B04207D30748D3
:10FB10000068B04205D106480068002801D10124E0
:10FB200000E000242046F8BDEC32002090280020A0
:10FB30008C280020F8B510480078142148430E495D
:10FB4000091D4518EE6801F01FF8009069888919B1
:10FB5000AA888918481E0099FCF7E8FA0746074862
:10FB60000068002805D006480068B84201D1012489
:10FB700000E000242046F8BDEC3200208C28002054
:10FB80009028002001468807800F002801D101201D
:10FB900070470020FCE710B5152000F037FB162059
:10FBA00000F034FB172000F031FB10BD10B5044607
:10FBB00005480078C007C00F002803D0034800782C
:10FBC000FDF79CFC10BD0000242800201C2800200C
:10FBD000FEB52B48006801902A480078009040E06C
:10FBE0000098C000284909684418257835E0182095
:10FBF000684361680F18681CC5B2A078A84200D19C
:10FC000000253878022802D0032823D10EE02421D1
:10FC1000786848431D4909684618307D002804D09B
:10FC2000786801F06FFE0020307514E00CE0144994
:10FC3000096824225143154A126888180021017569
:10FC40000F4A016A116000BF0D480068401C00287F
:10FC5000EDD100E000BF00BF00BF6078A842C6D170
:10FC600000BF0098411EC9B200910028B8D10448D5
:10FC700001680198814201D00120FEBD0020FCE70F
:10FC8000D8280020D0280020D4280020CC2800200C
:10FC9000FEB507464348006802904348007801904B
:10FCA00071E00198C00041490968451863E0781C7B
:10FCB000002807D03E46242070433D490968441877
:10FCC000276A29E02978182359436A685018297847
:10FCD000491C29702978AA78914201D10021297004
:10FCE000466824217143324A12688C180178012930
:10FCF00002D1217D002900D03DE08168A160C1686A
:10FD0000E160016921614169E1612A4909780029BD
:10FD100001D00021A16000BF2749A0680968401AEE
:10FD20000002000A2549884208D22349A0680968D0
:10FD300001F004FDE1684018606011E01E48A16810
:10FD4000006801F0FBFC0090E1680098814204D952
:10FD5000E1680098081A606001E00020606000BF60
:10FD60000020A060E06001202075801E20623046E7
:10FD700001F05AFD00BF781C002898D128786978D6
:10FD8000884294D100BF0198411EC9B20191002858
:10FD900087D1044801680298814201D00120FEBD4C
:10FDA0000020FCE7D8280020D0280020D4280020FC
:10FDB000CC280020F1280020DC280020FFFF7F0055
:10FDC00008B500BF00201F4B062204210090FCF75D
:10FDD000EDFE054600BF2E46002E06D000BF1AA23B
:10FDE0001D493046FCF712FE00BF00BF00BF0022D5
:10FDF0001A490320FDF718FB044600BF2546002DD5
:10FE000007D000BF10A25B21C9002846FCF7FEFD09
:10FE100000BF00BFFFF7BFFE01F078FE01F0AAFFB0
:10FE2000FDF75AF9FEF7BEFBFEF780F901F020FF5F
:10FE30000BA0FCF723FC01F09FF900BF00F080FD50
:10FE4000FCE70000542D00202E2E5C2E2E5C2E2E62
:10FE50005C6D61696E2E6300D6020000CD0C00005F
:10FE60005363616E6E696E67202E2E2E0D0A0000A0
:10FE700010B5054800680821884303490860034815
:10FE8000007801F00FFA10BDA0280020842800207F
:10FE900001460020704702460020704702460020BD
:10FEA0007047000070B504460D4629462046FCF711
:10FEB000CBFA00BFE106C90E012088400549086061
:10FEC00000BF00BFE106C90E01208840024908605A
:10FED00000BF70BD80E200E000E100E0FEB5054635
:10FEE0000E46284600F008FD002820D02846FDF7E1
:10FEF00007FE001F28490F5CBC11032C0CD100BF6A
:10FF0000264800690121A9400840002801D00320AB
:10FF100000E00220019005E0012C01D1022000E068
:10FF2000032001902846019900F079F932E0284633
:10FF300000F0EEFC00282DD02846FDF7E1FD044638
:10FF4000A000FF30013080B20190204614495122B8
:10FF5000120189188200895801221143104A512345
:10FF60001B01D2188300D15000BF019800F0A0F906
:10FF7000002E0ED02846FDF7C3FD0090FDF77CFD56
:10FF80000746002F04D00121A140084600F0A4F943
:10FF900000BF00BFFEBD000010340020000500506F
:10FFA00000600040F7B582B004460E460020019084
:10FFB000204600F093FC002802D0082001905FE06A
:10FFC000F27820460499FDF75FFD0546681C00287D
:10FFD00053D0B078002810D000BFA1002A4A891859
:10FFE00009680222914308460521090707221202E7
:10FFF0008918A200885000BF0AE0707881000522AD
:020000040002F8
:10000000120707231B02D218A300D15000BF00BF64
:10001000F078002826D037781C4851210901401873
:10002000A90040581A49084018495122120189185C
:10003000AA0088501548512109014018A9004158CB
:1000400020021F22120210403A0403231B041A400C
:10005000104301430D48512212018018AA0081501B
:1000600000BF0CE0281F0B49085C31788901084368
:1000700042B2281F07490A5401E00420019000BF42
:10008000019805B0F0BD000000070050006000407E
:10009000FFE0FCFF10340020014600BF0548006966
:1000A000C840C007C00F002801D0012070470020C1
:1000B000FCE700000005005010B512480079002848
:1000C00001D0082010BD002404E0204600F030FCE0
:1000D000601CC4B2202CF8DB002404E02046FDF7AD
:1000E000BBFC601CC4B2082CF8DB01210620FFF722
:1000F000D9FE0120C00700F0EFF80121014801718D
:100100000020DFE71034002003480079002801D0E8
:10011000012070470020FCE710340020FEB50446A3
:100120000E4600200190204635490956491C0029F9
:1001300001D0012100E00021002902D00820019017
:100140005BE0B07800283AD0012200212046FDF77C
:100150009BFC0546681C00282ED0377872780092E8
:100160002848512109014018A90040582649084053
:100170002449512212018918AA008850214851218E
:1001800009014018A900415820021F221202104004
:100190003A0403231B041A401043009A120501235A
:1001A0001B051A40104301431648512212018018C2
:1001B000AA00815000BF01E00420019006E000BFCA
:1001C0000121C9430E48015500BF00BF0198002816
:1001D00013D100BF03200521090707221202891845
:1001E000A200885000BF7078012803D1204600F09B
:1001F00051F802E0204600F03DF80198FEBD0000F5
:10020000F033002000600040FFE0ECFF03210522F6
:10021000120707231B02D2188300D150704710B574
:100220000522120707231B02D2188300D25803238A
:100230001B049A4305231B07072424021B1984006F
:100240001A510522120707231B02D2188300D25825
:100250000B041A4305231B07072424021B198400DF
:100260001A5110BD01218140014AD1607047000040
:100270000005005001218140014AD1607047000013
:100280000005005001218140014A91607047000043
:100290000005005001218140014A91607047000033
:1002A00000050050014601480818704700600040F2
:1002B00010B504462046FFF7F5FF0021016010BD90
:1002C00010B504462046FFF7EDFF0068012800D175
:1002D00010BD0020FCE700000149486070470000A5
:1002E00000630040F0B585B00646351D30881928FA
:1002F0003FD01B2802D01D285CD149E028460B3096
:100300000290A87AC008694688816A4602A9062038
:10031000FCF7E8FA0446002C05D06A4602A907203B
:10032000FCF7E0FA0446002C22D110222348009961
:10033000FBF74AFF00281BD187DF0446002C03D0BF
:1003400021461FA0FCF79AF91520FFF78BFF2648DE
:1003500000780221884324490870244AA81C88DFB9
:100360000446002C03D0214621A0FCF787F922E0A7
:1003700021E0A878022809D129480078012806D16F
:1003800002202749087000F0F7FE00E000BF12E0ED
:100390002888A91C75DF044600BF2746002F07D018
:1003A00000BF20A2FF2190313846FCF72FFB00BF91
:1003B00000BF00E000BF00BF05B0F0BD082800206E
:1003C0005B4150504C5D3A205363616E2073746FF3
:1003D00070206661696C65642C20726561736F6E54
:1003E0002025640D0A00000088290020E01E02007C
:1003F0005B4150504C5D3A20436F6E6E656374698B
:100400006F6E2052657175657374204661696C6505
:10041000642C20726561736F6E2025640D0A0000E4
:10042000062800202E2E5C2E2E5C2E2E5C6D61691F
:100430006E2E6300F3B587B005460020069060205D
:10044000405D2E214843441908984088002857D120
:10045000089808300590207904900598007803905A
:10046000039904984018032804DC2179039808189C
:10047000207101E003202071049E0020029017E00B
:100480000A22029842430598801C11180C207043E0
:10049000A21D83180A221846FBF772FE00210C20C9
:1004A0007043A21D80184181761C0298401C029066
:1004B0002079B042E4D8701E0C214843A11D401899
:1004C000019028460199FFF77DFA002802D0207993
:1004D000032802D10120069011E021795F204155C7
:1004E0002846FDF713FB0746002F08D000216120A6
:1004F000415539462846FEF71DF909B0F0BD01E027
:1005000001200690069800281DD000215F2041554B
:1005100005A92846FDF726FE0746002F07D0002133
:100520006120415539462846FEF704F9E5E768465B
:10053000007D002806D001212846FEF7A9F82846AC
:1005400000F0E6F800BF00BFD7E7000010B508488C
:100550000078012802D0022807D102E0FCF7B0F9A8
:1005600004E003200249087000E000BF00BF10BD96
:100570007828002010B510480078002802D0032801
:1005800016D111E004200D49086001200C490860D3
:100590000C48FEF77BFF002802D0FCF753F902E07D
:1005A00001200549087004E002200349087000E0BA
:1005B00000BF00BF10BD00007828002000250040CB
:1005C00000200040DC320020FEB504460D466020CD
:1005D000005D2E21484307192E4608365F20005D36
:1005E0000C214843B91D401802906888002816D194
:1005F00000BF0FE006214143B21C891849881F4AF9
:10060000914206D106214143B21C525A02994A81B5
:1006100003E0401C31888142ECD800BF00BF0020BD
:1006200001905F20005D401C3979884202D1012091
:10063000019016E05F20005D401CC1B25F200155B3
:1006400001A92046FDF78EFD00900098002807D0F4
:1006500000216120015520460099FEF76BF8FEBD90
:1006600000BF68460079002806D001212046FEF729
:100670000FF8204600F04CF800BFF0E70229000018
:1006800030B587B005460C46A089A988884211D1AB
:10069000022069460871228A2146123101A80130E0
:1006A000FBF76EFD217C01A8417501A92846AA68C7
:1006B000904700BF07B030BDF8B504460D466888C6
:1006C00000281DD16020005D2E21484307192E46C9
:1006D000083671883980B0887880F2887A853189C7
:1006E000B9852046FDF712FA00900098002806D040
:1006F00000216120015520460099FEF71BF806E015
:1007000000212046FDF7C4FF204600F001F8F8BDA7
:1007100070B504461C480068401C1B490860084628
:1007200000681A490968884228D200215F200155D3
:100730006020005D401CC1B260200155005D2E218B
:10074000484305196020005DC00011494018018828
:10075000298040886880002028715C21085B2A4637
:10076000012190DF0646002E07D0002161200155AF
:1007700031462046FDF7DEFF70BD02E0002161201A
:10078000015500BFF8E70000482800204428002059
:100790001030002010B50446022C02D0032C0BD1DF
:1007A00000E000BF06480078002804D0002004497B
:1007B000087000F0E1FC00E000BF00BF10BD0000C9
:1007C0000728002010B509480078012807D0022822
:1007D00004D0032806D1FCF773F804E000BFFCF74F
:1007E00023F800E000BF00BF10BD00007828002003
:1007F00010B5FCF765F810BD10B504462300FBF7F3
:100800004DFF0504070D0A101300FFF79FFE0CE0D3
:10081000FFF7B0FE09E0FFF7D5FF06E000F008F8AB
:1008200003E0FFF7E5FF00E000BF00BF10BD0000E0
:1008300010B503480078012801D1FCF703F810BD7A
:100840007828002070B504460D4601F083F970BD8C
:1008500010B5044618216143104A89180846113022
:100860000621FBF7A6FC182060430C494018002124
:10087000016041608160C160FF2118206043074A28
:1008800080180174182060438018C175204601F05B
:10089000F3FA0020A100024A505010BDAC300020F5
:1008A0009030002010B5002409E038226243084B44
:1008B000D01838226243D218516B8847641C05480F
:1008C00000688442F1D300200349086010BD000095
:1008D0002030002044280020402800200146054800
:1008E0004056C017401C002801D00120704700204E
:1008F000FCE70000F033002001460448405604287D
:1009000001DB012070470020FCE70000F0330020ED
:10091000014606484056002805DB04484056042896
:1009200001DA012070470020FCE70000F0330020CE
:100930000022D24301490A5470470000F0330020DE
:1009400070B548DF044600BF2546002D07D000BF24
:1009500004A28B2189002846FCF758F800BF00BF8D
:1009600070BD00002E2E5C2E2E5C2E2E5C6D6169FB
:100970006E2E6300014600BF084800680422104044
:10098000002801D10820704700BF002901D10E20A6
:10099000F9E70348407808600020F4E7A028002029
:1009A000EC3200203CB5034600BF25480068042413
:1009B0002040002801D108203CBD00BF002B01D100
:1009C0000E20F9E7002A01D10E20F5E71868022869
:1009D00006D20C24186860431A4C2058002801D114
:1009E0000720E9E75C68186801940090019C0C25D9
:1009F00018686843134D4019008948432018019036
:100A00000C24009860432C46001940890C25009C5A
:100A10006C430C4D6419248960430C25009C6C4385
:100A2000084D641964680019019CA04201D8072090
:100A3000C2E7019C0098546010600020BCE70000F1
:100A4000A0280020B8330020FEB504460D4600BFA4
:100A50004148006804210840002801D10820FEBD5B
:100A600000BF002C01D10E20F9E72068022806D231
:100A70000C212068484339490858002801D1072033
:100A8000EDE70C21206848433449401840890C2286
:100A900021685143314A8918098948430C22216849
:100AA00051432E4A8918496840186168884201D824
:100AB0000720D4E76068FFF765F8002801D110200F
:100AC000CDE70C2320685843244BC0186268406867
:100AD000101A00900C22206850431A468018018991
:100AE0000098FBF723FB002901D00720B7E70C2271
:100AF00020685043194A801801892846FBF72CFBCF
:100B0000002901D1002D01D10720A8E70C21206880
:100B100048431249401806890C22216851430F4A64
:100B2000891849894E43606847190C212068484359
:100B3000114640184068801901900198874201D9F8
:100B400007208CE700202B46024621460090032018
:100B5000FDF7EEF883E70000A0280020B83300205E
:100B600070B508484469601C002807D000F00CF8F4
:100B7000054629462046FBF7D9FA70BD012000073B
:100B80004069FAE70010001001200007006980B2F8
:100B90007047000010B5FDF70DF9002017490880D7
:100BA000FFF7DEFF841EFFF7EFFF444314480460A5
:100BB00000201449086000BF0DE000220C214143D1
:100BC000114B5A500C214143C9180A810C21414351
:100BD000C9184A81401C0228EFD300200B49087035
:100BE0000B4908600B4908600B4908600948006818
:100BF0000421084307490860002010BD7C2800201C
:100C00008028002090280020B8330020842800206D
:100C100094280020A028002098280020FFB581B04B
:100C20000C4615461E4600BF39480068042108409E
:100C3000002802D1082005B0F0BD00BF002C01D172
:100C40000E20F8E70198002801D10E20F3E7206874
:100C5000022806D20C21206848432E490858002853
:100C600001D10720E7E70C212068484329494018B3
:100C700040890C2221685143264A89180989484332
:100C80000C2221685143234A891849684018616839
:100C9000884201D80720CEE7002D07D00C2120681C
:100CA00048431C4940180089A84201DA0720C2E7DE
:100CB000A9190C2220685043164A801800898142E5
:100CC00001DD0720B7E70198FEF75CFF002809D097
:100CD0003046FEF757FF002804D06068FEF752FF49
:100CE000002801D11020A6E7606881192A460198E2
:100CF000FBF746FA00950C212068484305490F5838
:100D0000002202212046019BB847002093E7000003
:100D1000A0280020B8330020F8B504460D4600BFD7
:100D20003F48006804210840002801D10820F8BD90
:100D300000BF002C01D10E20F9E7002D01D10E20BB
:100D4000F5E72068002801D10E20F0E7FFF71CFF2F
:100D5000A188884202DBA088102801DA0720E6E794
:100D6000E08800280DD0FFF7FBFE471EFFF70CFFC1
:100D70004743E088A18848432A49096840188742C8
:100D800001D20720D3E720798007800F002801D007
:100D90000720CCE724480088022801D10420C6E7B8
:100DA0002148008828601F48006868601E48008845
:100DB0000C2250431D4A8018696841601A48008817
:100DC0000C225043194A21681150A1881648008806
:100DD0000C225043154A80180181E188124800888E
:100DE0000C225043114A80184181FFF7CDFE07467F
:100DF000A188E2885143481E3946FBF7ADF9461CED
:100E0000FFF7C2FE704307490968401805490860AA
:100E100005480088401C04490880002087E700003E
:100E2000A0280020802800207C280020B833002043
:100E3000F8B504460E4615461F4600BF3248006806
:100E400004210840002801D10820F8BD00BF002E71
:100E500001D10E20F9E7002C01D10E20F5E7206822
:100E6000022806D20C212068484328490858002847
:100E700001D10720E9E70C212068484323494018A5
:100E800040890C2221685143204A89180989484326
:100E90000C22216851431D4A89184968401861682D
:100EA000884201D80720D0E7002D07D00C21206808
:100EB0004843164940180089A84201DA0720C4E7D0
:100EC000E9190C2220685043104A80180089814299
:100ED00001DD0720B9E73046FEF754FE002809D0AF
:100EE0003846FEF74FFE002804D06068FEF74AFE41
:100EF000002801D11020A8E72B46324621460120C8
:100F00000097FCF715FFA0E7A0280020B8330020C9
:100F100010B504460F480078002819D00D48007815
:100F2000042815D0022C02D0032C0FD102E0FEF7CA
:100F3000EFFA0CE00848006808210840002802D1B8
:100F4000FEF7C6FA01E0FEF7E3FA00E000BF00BFDB
:100F500010BD000084280020A0280020F8B5044619
:100F60000E4615461F4600BF32480068042108405F
:100F7000002801D10820F8BD00BF002E01D10E20AD
:100F8000F9E7002C01D10E20F5E72068022806D2EF
:100F90000C212068484328490858002801D107201F
:100FA000E9E70C21206848432349401840890C2276
:100FB00021685143204A8918098948430C22216835
:100FC00051431D4A8918496840186168884201D810
:100FD0000720D0E7002D07D00C2120684843164990
:100FE00040180089A84201DA0720C4E7E9190C2259
:100FF00020685043104A80180089814201DD072093
:10100000B9E73046FEF7BEFD002809D03846FEF7A6
:10101000B9FD002804D06068FEF7B4FD002801D1B6
:101020001020A8E72B463246214604200097FCF703
:101030007FFEA0E7A0280020B83300200246002150
:1010400012E0C8000B4BC0188078937898420AD100
:10105000C800084B185A1388984204D1C800054BA1
:10106000C01840687047491C034800688142E8D3B3
:101070000020F7E7103000204428002002460E48E8
:101080000068022815D20C480068C0000B4BC0183D
:10109000138803805388438007480068C000074BCB
:1010A000C018416004480068401C034B18600020D1
:1010B00070470420FCE70000442800201030002086
:1010C00001484068704700000015014010B5044613
:1010D0000348846003211120FBF7F2F910BD0000E2
:1010E0000015014010B5012000040A494860094973
:1010F000403948601120FBF74DF91120FBF754F9F6
:101100000120054908602F20FAF7E4FF0120034978
:10111000087010BD4013014000100140F02800206D
:1011200010B51120012181400E4A116000BF01203D
:1011300000040D4988600C494039886001200B4942
:1011400048602F20FAF7C6FF012008498860002078
:10115000074908602F20FAF7BDFF002005490870F5
:1011600010BD000080E100E040130140001001408C
:10117000DC280020F028002030B595B06846FFF745
:10118000F9FB044600BF2546002D07D000BF3DA255
:101190009F2189002846FBF739FC00BF00BF00985B
:1011A000002804D001203B49087015B030BD08214B
:1011B00010A801720021017409A8119001A81390D0
:1011C00011A93548FEF74EF8044600BF2546002D0C
:1011D00007D000BF2BA2A32189002846FBF716FCED
:1011E00000BF00BF10A8007A002803D110A8007C1F
:1011F000002803D029480078012814D02848007816
:1012000040084000401C264908700846007802212A
:10121000884323490870A02008815020488100207D
:101220004860888118E01E48007840084000401C53
:101230001B4908700846007802218843801C184921
:101240000870A02008815020488111A848601E2005
:101250008881012011490870114886DF044600BFCB
:101260002546002D07D000BF06A25521C9002846FB
:10127000FBF7CCFB00BF00BF1520FFF703F800BF52
:1012800093E700002E2E5C2E2E5C2E2E5C6D616985
:101290006E2E63000728002000280020062800206A
:1012A0008829002010B504460248047000F0AEF80A
:1012B00010BD00008428002070B506460C46154677
:1012C00029462046C046C04670BD000001460029A0
:1012D00001D10E207047024801600020FAE70000AB
:1012E0000C290020FFB581B00C4616461F46002C85
:1012F00002D1072005B0F0BD20468107890F0029E3
:1013000001D1012100E00021002901D10720F1E7EE
:10131000094804600948068009480760094901989E
:1013200010DF0546002D01D02846E3E701200649DD
:10133000087016202EDFDDE7042900200829002090
:10134000FC280020B91202000029002001460029D3
:1013500001D10E207047024801600020FAE700002A
:101360001029002010B502480068FEF7E9F810BD0A
:1013700090280020F8B521480068400840001F4927
:1013800008601F480078142148431D49091D44186E
:10139000E568FFF7F9FB014600902846FAF7C6FE1C
:1013A000064618480660FFF7EFFB00906188491970
:1013B000481E0099FAF7BAFE0746BE4206D10F480A
:1013C0000068022108430D49086005E00B480068E9
:1013D00002218843094908600B480068002809D1A8
:1013E0000648006802210840002803D1022000F0CE
:1013F00055F902E0002000F051F9F8BDA0280020C6
:10140000EC320020902800208828002010B50D48DC
:101410000078002806D0012807D0022808D0032829
:101420000CD108E000F018F809E000F067F806E0D9
:10143000FFF7A0FF03E0FFF795FF00E000BF00BF4C
:1014400010BD00008428002010B502480068FEF797
:1014500077F810BD9028002010B5002003490860DF
:1014600003490860FCF73CFC10BD000094280020F4
:101470009828002070B5FFF773FB461EFFF784FB2A
:1014800046433446FFF780FB05490968491E484337
:1014900005460448214602682846FEF759F870BD03
:1014A0009028002088280020F8B5124800781421E0
:1014B00048431049091D4418E568FFF765FB0646D7
:1014C00061884919A28888183146FAF72FFE0091E1
:1014D000FFF746FB471EFFF757FB474300983E18B0
:1014E00061884919A288881803490A683146FEF7BD
:1014F0002FF8F8BDEC3200208C28002010B500F049
:1015000033F810BDF8B5FFF73FFB0646FFF728FBA1
:10151000471EFFF739FB47433D4631462846FAF759
:1015200005FE0446FEF70CF8F8BD0000F8B5FFF71D
:101530002BFB8408FFF728FB084909684843054648
:10154000FFF70EFB471EFFF71FFB47433E462246B1
:1015500029463046FDF7FCFFF8BD0000902800202A
:1015600010B50446002010BD70B51648007814214F
:1015700048431449091D4418FFF706FB6188884257
:1015800014DAFFF701FB61880D1AFFF7FDFA8608F0
:10159000A388E268D2185019226951193246FDF722
:1015A000D7FFFFF7F1FA084908600AE0A588E36869
:1015B000581963889A082169FDF7CAFF60880249B3
:1015C000086070BDEC3200209828002010B5012082
:1015D000FFF768FE10BD000010B50F480068082135
:1015E0000840002814D10D480078142148430B49C5
:1015F000091D441860880A490988401A608060887B
:10160000002802D1FCF7E6FB01E0FFF7ADFF01E0A7
:10161000FEF72EFC10BD0000A0280020EC320020B8
:101620009828002010B506480068082108400028C6
:1016300003D1012000F032F801E000F013F810BDF2
:10164000A028002010B5FCF713FB10BD10B503490E
:1016500009788900024A5058804710BD852800202B
:10166000701F020010B5054800680821884303492F
:1016700008600348007800F011F810BDA028002091
:101680008528002010B5034909788900024A50587E
:10169000804710BD85280020841F020010B5044635
:1016A00002480470FFF7D2FF10BD0000852800201B
:1016B00010B504462046FFF72BFC2046FFF76AF8DA
:1016C00010BD000010B50648006808210840002839
:1016D00002D1FFF7B7FF01E0FFF7C4FF10BD000024
:1016E000A0280020FEB505460C46FFF74DFA074638
:1016F00039462046FAF730FD0646FFF745FA074619
:1017000039462846FAF728FD01900198864204D10F
:10171000601B8008084908600DE0FFF735FA0746AE
:10172000FFF732FA014600902846FAF715FD781ABD
:10173000800801490860FEBD8C2800200246501A2E
:101740000002000A7047000070B504460D480068AA
:10175000002813D00B4AE169A0691268904705463A
:1017600000BF2E46002E07D000BF07A2FF21673121
:101770003046FBF74BF900BF00BF02E0A169E0690A
:10178000884770BDEC2800202E2E5C2E2E5C2E2E5D
:101790005C2E2E5C2E2E5C2E2E5C636F6D706F6E39
:1017A000656E74735C6C69627261726965735C7496
:1017B000696D65725C6170705F74696D65722E63CE
:1017C00000000000FEB50020C043019010480468EE
:1017D000104807686846FDF7CFFD0546FEF7F8F9A3
:1017E0000646002D05D001AA21460098FDF718FEF7
:1017F00001260198FEF74CFA002800D00126002EA1
:1018000002D03846FCF710FB002003490870FEBDEB
:10181000DC280020D8280020F128002010B5142052
:10182000FAF7CCFD10BD0000F0B50246242050436D
:10183000324B1B68C11832480068401C002802D196
:101840002F48026059E02E484B680068242460430A
:101850002A4C246800194068834217D82848006839
:1018600024235843254B1B68C01840684B68C31A93
:101870002348006824246043204C246800194360F6
:101880001F48006808621E48026036E04B681C4D25
:101890002C6828680DE024254543184E3668AD199C
:1018A0006D685B1B044624254543144E3668AD190C
:1018B000286A451C002D07D0242545430F4E366865
:1018C000AD196D689D42E6D3451C002D0CD0242532
:1018D00045430A4E3668AD196D68EE1A2425454316
:1018E000064F3F68ED196E604B6008622425654322
:1018F000024E3668AD192A6200BFF0BDCC28002028
:10190000D828002070B502462C4C2168084609E012
:10191000904200D109E0014624244443284D2D681B
:101920006419206A441C002CF2D100BF441C002C16
:1019300000D170BD814217D1204C246824256C430E
:101940001F4D2D686419246A1C4D2C602C46246898
:10195000641C002C08D101241A4DAC6000241A4DDF
:101960002C600124194D2C7024244443144D2D68FF
:101970006419636824244443114D2D686419256A51
:1019800024244C430E4E3668A419256224244C436B
:101990000B4D2D686419206A441C002C0CD02424A3
:1019A0004443074D2D6864196468E51824244443B2
:1019B000034E3668A419656000BFBAE7D828002036
:1019C000CC28002000100140DC280020F128002055
:1019D000FFB581B005460E461746E900104A126869
:1019E0008818694600F063FA0446002C02D10420EE
:1019F00005B0F0BD012020706660FFF761FBA060BC
:101A0000E760049820610A986061E900044A12685E
:101A10008818009900F061FAFFF700FF0020E7E75F
:101A2000D4280020F8B504460E46E1000C4A12689E
:101A30008818694600F03BFA0546002D01D10420C4
:101A4000F8BD022028706E60E100054A126888180F
:101A5000009900F042FAFFF7E1FE0020F0E70000F5
:101A6000D4280020F8B520480068401C00283AD04F
:101A70000027FFF725FB04461C4801682046FFF7B6
:101A80005DFE06461848056811E0242068431849A1
:101A9000096844186068B04200D90BE06068361AE3
:101AA0006068C719256A2046FFF74EFE00BF681C14
:101AB0000028EAD100BF0F4800780F490978884212
:101AC00009D10D480078401CC0B20B4908700228AB
